{
  "transactions": [
    {
      "hash": "0xee43289443ac61f0c701e211ff26729c86107f03fca73bb057a0fd220c87ac55",
      "transactionType": "CALL",
      "contractName": null,
      "contractAddress": "0x3f80d4908c1abfeb34e8851d35af9e1e95b2db20",
      "function": "configureFundAndStart((address,uint256,bytes,uint64,uint64,string,address,bytes4,uint256,uint256,uint256,uint16,string,bytes,(string,string,string),(string,string,string),(string,string,string)[],(string,string,string),string,string[],uint16,uint32,string),(uint32,uint32,uint32,uint256,uint256,uint256),(uint32,uint16,uint16),uint256)",
      "arguments": [
        "(0x833c7a5c0628b3d47D12c3556AC1B02B2723f390, 500, 0x, 5, 6000, passkey-monitor, 0x3f80d4908C1ABfeb34E8851d35Af9e1e95B2dB20, 0x8ca12055, 500000, 1000000000, 100000000, 6, You are a monitoring agent for PasskeyImageConsumer, a dApp on Ritual Chain that generates AI images. Each time you wake up, check the contract state and prepare a brief status report. Report the total image request count and any recent activity. Keep responses concise (under 200 tokens)., 0x04dda9123c9e5f857f8bca98b1894b3590c19501212f0625e4b4eb9332e1df8ef02145a42315a1fbb235eda65ec7c702421875bd88bd67b3b2c9c3a00825edd6944b6d17df0bbe7403678b9d55f78ac80b4b7a7888da1903de739000469969a1f0146882788969eaae990303e41f50a44eae, (, , ), (, , ), [], (, , ), zai-org/GLM-4.7-FP8, [], 3, 1024, {\\\"ritual\\\":\\\"https://rpc.ritualfoundation.org\\\"})",
        "(500000, 2000, 500, 1000000000, 100000000, 0)",
        "(5, 5000, 1)",
        "100000"
      ],
      "transaction": {
        "from": "0xf37f26fdb23f2bdd5349188bb5565ed3acd3ff5b",
        "to": "0x3f80d4908c1abfeb34e8851d35af9e1e95b2db20",
        "gas": "0x1a79f7",
        "value": "0xb1a2bc2ec50000",
        "input": "0xb19067020000000000000000000000000000000000000000000000000000000000000160000000000000000000000000000000000000000000000000000000000007a12000000000000000000000000000000000000000000000000000000000000007d000000000000000000000000000000000000000000000000000000000000001f4000000000000000000000000000000000000000000000000000000003b9aca000000000000000000000000000000000000000000000000000000000005f5e100000000000000000000000000000000000000000000000000000000000000000000000000000000000000000000000000000000000000000000000000000000050000000000000000000000000000000000000000000000000000000000001388000000000000000000000000000000000000000000000000000000000000000100000000000000000000000000000000000000000000000000000000000186a0000000000000000000000000833c7a5c0628b3d47d12c3556ac1b02b2723f39000000000000000000000000000000000000000000000000000000000000001f400000000000000000000000000000000000000000000000000000000000002e00000000000000000000000000000000000000000000000000000000000000005000000000000000000000000000000000000000000000000000000000000177000000000000000000000000000000000000000000000000000000000000003000000000000000000000000003f80d4908c1abfeb34e8851d35af9e1e95b2db208ca1205500000000000000000000000000000000000000000000000000000000000000000000000000000000000000000000000000000000000000000007a120000000000000000000000000000000000000000000000000000000003b9aca000000000000000000000000000000000000000000000000000000000005f5e1000000000000000000000000000000000000000000000000000000000000000006000000000000000000000000000000000000000000000000000000000000034000000000000000000000000000000000000000000000000000000000000004a00000000000000000000000000000000000000000000000000000000000000540000000000000000000000000000000000000000000000000000000000000060000000000000000000000000000000000000000000000000000000000000006c000000000000000000000000000000000000000000000000000000000000006e000000000000000000000000000000000000000000000000000000000000007a000000000000000000000000000000000000000000000000000000000000007e00000000000000000000000000000000000000000000000000000000000000003000000000000000000000000000000000000000000000000000000000000040000000000000000000000000000000000000000000000000000000000000008000000000000000000000000000000000000000000000000000000000000000000000000000000000000000000000000000000000000000000000000000000000f706173736b65792d6d6f6e69746f7200000000000000000000000000000000000000000000000000000000000000000000000000000000000000000000000121596f75206172652061206d6f6e69746f72696e67206167656e7420666f7220506173736b6579496d616765436f6e73756d65722c20612064417070206f6e2052697475616c20436861696e20746861742067656e65726174657320414920696d616765732e20456163682074696d6520796f752077616b652075702c20636865636b2074686520636f6e747261637420737461746520616e642070726570617265206120627269656620737461747573207265706f72742e205265706f72742074686520746f74616c20696d616765207265717565737420636f756e7420616e6420616e7920726563656e742061637469766974792e204b65657020726573706f6e73657320636f6e636973652028756e6465722032303020746f6b656e73292e00000000000000000000000000000000000000000000000000000000000000000000000000000000000000000000000000000000000000000000000000007204dda9123c9e5f857f8bca98b1894b3590c19501212f0625e4b4eb9332e1df8ef02145a42315a1fbb235eda65ec7c702421875bd88bd67b3b2c9c3a00825edd6944b6d17df0bbe7403678b9d55f78ac80b4b7a7888da1903de739000469969a1f0146882788969eaae990303e41f50a44eae00000000000000000000000000000000000000000000000000000000000000000000000000000000000000000060000000000000000000000000000000000000000000000000000000000000008000000000000000000000000000000000000000000000000000000000000000a00000000000000000000000000000000000000000000000000000000000000000000000000000000000000000000000000000000000000000000000000000000000000000000000000000000000000000000000000000000000000000000000000000000000000000000000000000000000000000000000000000000000000060000000000000000000000000000000000000000000000000000000000000008000000000000000000000000000000000000000000000000000000000000000a000000000000000000000000000000000000000000000000000000000000000000000000000000000000000000000000000000000000000000000000000000000000000000000000000000000000000000000000000000000000000000000000000000000000000000000000000000000000000000000000000000000000000000000000000000000000000000000000000000000000000000000000000000060000000000000000000000000000000000000000000000000000000000000008000000000000000000000000000000000000000000000000000000000000000a000000000000000000000000000000000000000000000000000000000000000000000000000000000000000000000000000000000000000000000000000000000000000000000000000000000000000000000000000000000000000000000000000000000000000000000000000000000000000000000000000000000000000137a61692d6f72672f474c4d2d342e372d465038000000000000000000000000000000000000000000000000000000000000000000000000000000000000000000000000000000000000000000000000000000000000000000000000000000002d7b2272697475616c223a2268747470733a2f2f7270632e72697475616c666f756e646174696f6e2e6f7267227d00000000000000000000000000000000000000",
        "nonce": "0xc",
        "chainId": "0x7bb"
      },
      "additionalContracts": [],
      "isFixedGasLimit": false
    }
  ],
  "receipts": [
    {
      "type": "0x2",
      "status": "0x1",
      "cumulativeGasUsed": "0x1379e9",
      "logs": [
        {
          "address": "0x3f80d4908c1abfeb34e8851d35af9e1e95b2db20",
          "topics": [
            "0x1e5b7fb62605cbb3e2b8a310df3b6ad4f66cb4af6ca6d78961a5614fbaf2d6bc",
            "0x000000000000000000000000f37f26fdb23f2bdd5349188bb5565ed3acd3ff5b"
          ],
          "data": "0x",
          "blockHash": "0x65880ce44b54a20dc3d748fc574b57a3db833a3ec690864517a0a871629a208c",
          "blockNumber": "0x271a115",
          "blockTimestamp": "0x19f2964c7fd",
          "transactionHash": "0xee43289443ac61f0c701e211ff26729c86107f03fca73bb057a0fd220c87ac55",
          "transactionIndex": "0x0",
          "logIndex": "0x0",
          "removed": false
        },
        {
          "address": "0x532f0df0896f353d8c3dd8cc134e8129da2a3948",
          "topics": [
            "0x90890809c654f11d6e72a28fa60149770a0d11ec6c92319d6ceb2bb0a4ea1a15",
            "0x0000000000000000000000003f80d4908c1abfeb34e8851d35af9e1e95b2db20"
          ],
          "data": "0x00000000000000000000000000000000000000000000000000b1a2bc2ec5000000000000000000000000000000000000000000000000000000000000027327b5",
          "blockHash": "0x65880ce44b54a20dc3d748fc574b57a3db833a3ec690864517a0a871629a208c",
          "blockNumber": "0x271a115",
          "blockTimestamp": "0x19f2964c7fd",
          "transactionHash": "0xee43289443ac61f0c701e211ff26729c86107f03fca73bb057a0fd220c87ac55",
          "transactionIndex": "0x0",
          "logIndex": "0x1",
          "removed": false
        },
        {
          "address": "0x56e776bae2dd60664b69bd5f865f1180ffb7d58b",
          "topics": [
            "0xcaca4474e4e795729bb2ff72d20cbac301679d1329458aba9cc4a52235266949",
            "0x00000000000000000000000000000000000000000000000000000000002ce3fc",
            "0x0000000000000000000000003f80d4908c1abfeb34e8851d35af9e1e95b2db20",
            "0x0000000000000000000000003f80d4908c1abfeb34e8851d35af9e1e95b2db20"
          ],
          "data": "0x000000000000000000000000000000000000000000000000000000000271a116000000000000000000000000000000000000000000000000000000000000000500000000000000000000000000000000000000000000000000000000000007d0000000000000000000000000000000000000000000000000000000000007a12000000000000000000000000000000000000000000000000000000000000001f4000000000000000000000000000000000000000000000000000000003b9aca000000000000000000000000000000000000000000000000000000000005f5e10000000000000000000000000000000000000000000000000000000000000000000000000000000000000000000000000000000000000000000000000000000120000000000000000000000000000000000000000000000000000000000000004418bb7d950000000000000000000000000000000000000000000000000000000000000000000000000000000000000000000000000000000000000000000000000000000000000000000000000000000000000000000000000000000000000000",
          "blockHash": "0x65880ce44b54a20dc3d748fc574b57a3db833a3ec690864517a0a871629a208c",
          "blockNumber": "0x271a115",
          "blockTimestamp": "0x19f2964c7fd",
          "transactionHash": "0xee43289443ac61f0c701e211ff26729c86107f03fca73bb057a0fd220c87ac55",
          "transactionIndex": "0x0",
          "logIndex": "0x2",
          "removed": false
        },
        {
          "address": "0x56e776bae2dd60664b69bd5f865f1180ffb7d58b",
          "topics": [
            "0xcf3ed25df3ff4bb905ca9d20f6a683044e29ff5c26321fa30259e212f1949b3f",
            "0x00000000000000000000000000000000000000000000000000000000002ce3fc",
            "0x0000000000000000000000003f80d4908c1abfeb34e8851d35af9e1e95b2db20"
          ],
          "data": "0x",
          "blockHash": "0x65880ce44b54a20dc3d748fc574b57a3db833a3ec690864517a0a871629a208c",
          "blockNumber": "0x271a115",
          "blockTimestamp": "0x19f2964c7fd",
          "transactionHash": "0xee43289443ac61f0c701e211ff26729c86107f03fca73bb057a0fd220c87ac55",
          "transactionIndex": "0x0",
          "logIndex": "0x3",
          "removed": false
        },
        {
          "address": "0x3f80d4908c1abfeb34e8851d35af9e1e95b2db20",
          "topics": [
            "0xb1480253a7fb1f1d8eb74d36db7fa694c3b5097445df27c7442e2cb64685abab",
            "0x00000000000000000000000000000000000000000000000000000000002ce3fc"
          ],
          "data": "0x000000000000000000000000000000000000000000000000000000000000000500000000000000000000000000000000000000000000000000000000000007d0",
          "blockHash": "0x65880ce44b54a20dc3d748fc574b57a3db833a3ec690864517a0a871629a208c",
          "blockNumber": "0x271a115",
          "blockTimestamp": "0x19f2964c7fd",
          "transactionHash": "0xee43289443ac61f0c701e211ff26729c86107f03fca73bb057a0fd220c87ac55",
          "transactionIndex": "0x0",
          "logIndex": "0x4",
          "removed": false
        }
      ],
      "logsBloom": "0x00000000000000000000000000000000000400008400000000000000000000000000000000000000800000000000000208200000000000004000000000800000000000000000020000020000000000000010000000000080000000000000000000000000000000000000000000000000010000000000000000000000000000001000000000008000000000020000000280000000000000000000000000000000000000000000000000000800000000000800008000000000000000000000000000000000000000000000000000000000400001000000020000000000004000480010000010000000000000000400000000100000400000000000000000000000",
      "transactionHash": "0xee43289443ac61f0c701e211ff26729c86107f03fca73bb057a0fd220c87ac55",
      "transactionIndex": "0x0",
      "blockHash": "0x65880ce44b54a20dc3d748fc574b57a3db833a3ec690864517a0a871629a208c",
      "blockNumber": "0x271a115",
      "gasUsed": "0x1379e9",
      "effectiveGasPrice": "0x3b9aca07",
      "from": "0xf37f26fdb23f2bdd5349188bb5565ed3acd3ff5b",
      "to": "0x3f80d4908c1abfeb34e8851d35af9e1e95b2db20",
      "contractAddress": null
    }
  ],
  "libraries": [],
  "pending": [],
  "returns": {},
  "timestamp": 1783105899808,
  "chain": 1979,
  "commit": "fd6c12d"
}